:020000040800F2
:100000000018002035350008B5350008B535000862
:1000100000000000000000000000000000000000E0
:10002000000000000000000000000000B5350008DE
:100030000000000000000000B53500081D17000892
:10004000B5350008B5350008B5350008B5350008E8
:10005000B5350008B5350008B5350008B5350008D8
:10006000B5350008B5350008B5350008B5350008C8
:10007000B5350008B5350008B5350008B5350008B8
:10008000B53500080000000000000000B53500088C
:10009000000000005121000805210008B5350008C6
:1000A00000000000B5350008B53500081D2E000819
:1000B000C92E000800000000B5350008B53500085D
:1000C00010B5064C2378002B07D1054B002B02D02E
:1000D000044800E000BF0123237010BD2000002071
:1000E0000000000000360008044B10B5002B03D0C0
:1000F0000349044800E000BF10BDC04600000000F6
:100100002400002000360008002243088B4274D3EC
:1001100003098B425FD3030A8B4244D3030B8B4208
:1001200028D3030C8B420DD3FF22090212BA030C11
:100130008B4202D31212090265D0030B8B4219D3F2
:1001400000E0090AC30B8B4201D3CB03C01A524112
:10015000830B8B4201D38B03C01A5241430B8B425A
:1001600001D34B03C01A5241030B8B4201D30B0343
:10017000C01A5241C30A8B4201D3CB02C01A52416A
:10018000830A8B4201D38B02C01A5241430A8B422D
:1001900001D34B02C01A5241030A8B4201D30B0216
:1001A000C01A5241CDD2C3098B4201D3CB01C01A30
:1001B000524183098B4201D38B01C01A524143093A
:1001C0008B4201D34B01C01A524103098B4201D328
:1001D0000B01C01A5241C3088B4201D3CB00C01A95
:1001E000524183088B4201D38B00C01A524143080D
:1001F0008B4201D34B00C01A5241411A00D2014632
:10020000524110467047FFE701B5002000F0F0F8BA
:1002100002BDC0460029F7D076E7704703460B437E
:100220007FD4002243088B4274D303098B425FD3EF
:10023000030A8B4244D3030B8B4228D3030C8B421B
:100240000DD3FF22090212BA030C8B4202D3121201
:10025000090265D0030B8B4219D300E0090AC30BD6
:100260008B4201D3CB03C01A5241830B8B4201D383
:100270008B03C01A5241430B8B4201D34B03C01A6C
:100280005241030B8B4201D30B03C01A5241C30AE4
:100290008B4201D3CB02C01A5241830A8B4201D355
:1002A0008B02C01A5241430A8B4201D34B02C01A3F
:1002B0005241030A8B4201D30B02C01A5241CDD2E4
:1002C000C3098B4201D3CB01C01A524183098B422F
:1002D00001D38B01C01A524143098B4201D34B0118
:1002E000C01A524103098B4201D30B01C01A52417B
:1002F000C3088B4201D3CB00C01A524183088B4202
:1003000001D38B00C01A524143088B4201D34B00EA
:10031000C01A5241411A00D201465241104670475C
:100320005DE0CA0F00D04942031000D34042534061
:1003300000229C4603098B422DD3030A8B4212D321
:10034000FC22890112BA030A8B420CD38901921153
:100350008B4208D3890192118B4204D389013AD090
:10036000921100E08909C3098B4201D3CB01C01A65
:10037000524183098B4201D38B01C01A5241430978
:100380008B4201D34B01C01A524103098B4201D366
:100390000B01C01A5241C3088B4201D3CB00C01AD3
:1003A000524183088B4201D38B00C01A5241D9D2EB
:1003B00043088B4201D34B00C01A5241411A00D26C
:1003C0000146634652415B10104601D34042002B68
:1003D00000D54942704763465B1000D3404201B5E7
:1003E000002000F005F802BD0029F8D016E770479C
:1003F0007047C046844608006146FFE71FB500F01D
:100400006DFB002801D40021C8421FBD10B500F0CB
:10041000F9FA4042013010BD10B500F05FFB002832
:1004200001DB002010BD012010BDC04610B500F05A
:1004300055FB002801DD002010BD012010BDC04685
:1004400010B500F005FB002801DC002010BD0120E4
:1004500010BDC04610B500F0FBFA002801DA0020FC
:1004600010BD012010BDC0469E2110B5C905041C59
:10047000FFF7F0FF002803D1201C00F047FE10BD5D
:100480009E21201CC90500F093FC00F03FFE802354
:100490001B069C466044F2E7F0B5C64643025B0A81
:1004A0004E0245004F00DA00C40F9C46700A904689
:1004B00000B52D0E3F0EC90FB6098C424BD0EA1B7A
:1004C000002A36DD002F61D0FF2D00D1ADE0802362
:1004D000DB041E431B2A00DCD3E001204346181A2C
:1004E000430100D48CE080018709380000F0BEFE93
:1004F00005388740854200DCB6E02D1AB348384005
:10050000430704D00F230340042B00D004304301E1
:1005100000D478E06A1CFE2D65D08001430A9C4619
:10052000D2B26346D0051843E407204380BCB846E6
:10053000F0BD002A35D07A1B002D00D0AFE0434635
:10054000002B00D1A7E0531E012A00D12FE1FF2A82
:1005500069D01A00AAE0E91B002970DD002F37D00E
:10056000FF2D62D08023DB041E431B2900DCB0E09A
:1005700001204044430143D50135FF2D33D00123F1
:10058000934A0340400810401843B9E7002E00D1B9
:1005900083E0511E012A00D1D8E0FF2A45D00A008D
:1005A00098E7FE276A1C174200D086E0002D00D095
:1005B000B7E04346002B00D1F3E00022002EB0D07C
:1005C000981B430100D4FAE043460C00F01A97E769
:1005D000002E00D1C8E04A1E012900D1AEE0FF295B
:1005E00023D01100C1E70023FF229C4699E7FE219A
:1005F0006A1C114277D0FF2AF5D0150046447008D6
:10060000430700D07EE7C308FF2D0ED05B025B0AD4
:100610009C46EAB285E7002E07D08022D20313421F
:1006200003D0104201D10C000300002BDBD080204E
:10063000C00318434002430A9C46FF2271E7002989
:10064000D5D07A1B002D60D14346002B24D0531EF9
:10065000012A73D0FF2AE7D01A001B2A00DC85E0AC
:1006600001203D00801985E720233A00451B380012
:100670000135EA405D1BA840431E98410025104308
:100680003EE7202330009B1A31009840D140431EA2
:100690009841084322E70C0003001500B4E7FF2F40
:1006A000C1D080234046DB04184380461B2A51DD1D
:1006B00001200C003D00301A12E743469F1B7B01CE
:1006C0002BD4002F00D010E70023002400229C46EA
:1006D00027E7202332003000CA40591A8840431EC1
:1006E0009841104345E7002D4AD14346002B63D083
:1006F0000022002E00D114E730004044430100D412
:100700007EE7324B013518407AE7FF2F8CD08023EB
:100710004146DB04194388469FE743460C00F71A1D
:10072000E3E64246002A00D075E7002E00D07AE7C3
:100730008023DB0300249C46FF22F2E63000404485
:100740000125430100D45BE7022518E74346012554
:10075000981BC5E6202344464046D4409A1A904050
:10076000431E98412043A4E70D004DE72023414656
:100770004046D1409A1A9040431E9841084370E782
:100780004246002A00D14FE7002E00D14DE78022DB
:10079000D203134200D148E7104200D045E70300DE
:1007A00043E7002E90D00C0084460022B9E6434671
:1007B0000C00F01A013593E684460022B1E60028C9
:1007C00000D01DE7002300249C46AAE6FFFFFFFBA4
:1007D000FFFFFF7DF0B54F464646D6464502C0B501
:1007E00047000C1C6D0A3F0EC60F002F00D170E0B1
:1007F000FF2F00D175E0EB008025ED041D430023A1
:1008000099469A467F3F6002430A984663001B0E52
:10081000E40F002B4ED0FF2B46D04246D000802262
:10082000D2040243904600227F3B3100FF1A4B4620
:100830006140C9B213430F2B00D9B5E06E489B004D
:10084000C3589F4600239846260045469246534685
:10085000022B00D189E0032B00D19EE0012B18D0A0
:100860003B007F33002B69DD6A0704D00F222A404A
:10087000042A00D004352A0103D5604B1D403B00FB
:100880008033FE2B00DD70E0AD016D0AD8B202E0CE
:100890000E0000200025C0052843F6073043E0BCC9
:1008A000BA46B146A846F0BD4346002B3FD10222CE
:1008B000FF3F03E04346002B2DD1012231004B4680
:1008C0006140C9B213430F2B34D84D489B00C35825
:1008D0009F46002D13D104239946033B00279A46D7
:1008E00091E7002D05D108239946063BFF279A463C
:1008F00089E70C239946093BFF279A4683E728009E
:1009000000F0B4FC7627431F9D4000237F429946A8
:100910009A463F1A77E7404600F0A8FC4246431F3C
:100920009A4076235B4290461B1A00227DE7FF2304
:1009300003227AE70E00FF200025ACE70120C01A51
:100940001B28A6DC9E372A00BD40C2406B1E9D417D
:1009500015436B0704D00F232B40042B00D0043524
:100960006B0144D50120002595E7FF20002592E783
:1009700080250026FF20ED038DE700239846802088
:10098000C003054209D04346034206D1454605430C
:100990006D022600FF206D0A7DE78020C00305431D
:1009A0006D02FF206D0A76E742466B0150018342DB
:1009B00019D21B220025013F01261C006D005B009F
:1009C000002C01DB984201D81B1A3543013A002A5A
:1009D000F3D15A1E93411D433B007F330E00002B81
:1009E00000DD41E7AAE71A2201251B1AE4E7AD0161
:1009F00000206D0A4FE7C04618360008FFFFFFF7DA
:100A00005836000870B5420045024E024C00C30F34
:100A10006D0A0120120E760A240EC90FFF2A06D095
:100A2000FF2C03D0A24201D1B54206D070BD002DEB
:100A3000FCD1FF2CFAD1002EF8D18B4206D0012038
:100A4000002AF3D12800431E9841EFE70020EDE78C
:100A500070B5420045024E024C00C30F6D0A120EE3
:100A6000760A240EC80FFF2A1BD0FF2C0ED0002AB6
:100A70001BD1002C01D1002E1CD0002D0CD08342A4
:100A80001CD00221581E0840013870BD002E22D112
:100A9000002AF4D1002DF2D10028F6D101204042E5
:100AA000F3E7002D17D1FF2CF0D0002CE7D1002E5A
:100AB000E5D1E6E70020002DE7D0E2E7A24205DC21
:100AC000EADBB54202D8E7D30020DEE743425841D3
:100AD00040000138D9E702204042D6E770B5420015
:100AE00045024E024C00C30F6D0A120E760A240E08
:100AF000C80FFF2A0BD0FF2C0DD0002A1FD1002CCD
:100B000016D1002E14D10020002D10D009E0002DA8
:100B10000CD1FF2C13D1002E08D1002A08D083421B
:100B200012D00221581E0840013800E0022070BD9A
:100B3000002DF4D10028FAD101204042F7E7002C23
:100B4000EDD1002EEBD1ECE7A24205DCF2DBB542A1
:100B500002D8EFD30020EAE7434258414000013871
:100B6000E5E7C046F0B54F464646D6464402450046
:100B7000C0B5640A0F1C2D0EC60F002D00D18DE0EC
:100B8000FF2D00D192E00023802099469A46E40090
:100B9000C00404437F3D7802430A98467B001B0E45
:100BA000FF0F002B00D170E0FF2B00D186E0424602
:100BB000D00080227F3BED180023D20402439046F0
:100BC0009C4631004B467940681C0F2B1CD8764A56
:100BD0009B00D3589F4639004446E2465346022BB9
:100BE0000FD0032B00D1D7E0012B37D100200024F8
:100BF000C0052043C9070843E0BCBA46B146A84631
:100C0000F0BDFF200024F3E7260C2404220C444608
:100C10002404240C434627001B0C574374435A43B7
:100C20005E4312193B0C9B189C4203D9802252024E
:100C3000944666443F041A043F0CD2199401671E7F
:100C4000BC411B0C920E9B1914439B011C431B01BE
:100C500000D49BE0012362081C40144302007F3251
:100C6000002A64DD630704D00F232340042B00D047
:100C70000434230103D502004C4B80321C40FE2A71
:100C8000BFDCA401640AD0B2B2E74346002B3DD1D9
:100C90004A4601331A4391469C4692E7002C29D1DB
:100CA00004239946033B00259A4674E7002C1BD188
:100CB00008239946063BFF259A466CE74346FF35D5
:100CC000002B0BD102234A461A4391469C4678E7F3
:100CD00053463100022B00D083E792E703234A46B4
:100CE0001A4391469C466CE70C239946093BFF2525
:100CF0009A4650E7200000F0B9FA7625431F9C4041
:100D000000236D4299469A462D1A44E7404600F06A
:100D1000ADFA4246431F9A4000232D1A90469C4646
:100D2000763D4EE780240021FF20E40360E70123A5
:100D30009B1A1B2B00DD59E722009E30DA408440CD
:100D40001300621E94411C43630704D00F23234009
:100D5000042B00D0043463011AD50120002447E796
:100D60008020C003044209D04346034206D14446D2
:100D7000044364023900FF20640A39E78020C0037D
:100D8000044364023100FF20640A31E7280065E76C
:100D9000A4010020640A2BE78020C00304436402FE
:100DA000FF20640A24E7C04698360008FFFFFFF7DB
:100DB000F8B5CE46474643025B0A4E02DA00944637
:100DC000720A914645004A0080B52D0E1F00C40FDF
:100DD000120EC90FB609FF2A5BD0012041408C4298
:100DE00039D0A81A00285ADD002A6AD0FF2D00D178
:100DF000D9E08022D20416431B2800DCE9E0012060
:100E00006346181A430100D4B4E080018709380012
:100E100000F02CFA05388740854200DCCCE02D1A22
:100E2000B5483840430704D00F230340042B00D0BB
:100E30000430430100D4A0E06A1CFE2D00D18DE0F7
:100E40008001470AD2B2D0053843E4072043C0BC32
:100E5000B946B046F8BDA81A8046002845DD002AEC
:100E600070D0FF2D00D19EE08023DB041E4343465B
:100E70001B2B00DCD2E00120604443017AD5013510
:100E8000FF2D6BD001239D4A0340400810401843BA
:100E9000C8E7002E20D08C4223D02800FF3800283D
:100EA00039D0571B002D00D09DE06346002B00D1A8
:100EB000DBE07B1E012F00D10DE1FF2F71D01F0061
:100EC00098E0002E00D1A7E0421E012800D1E6E004
:100ED000FF2868D010008FE701204140A14200D0D8
:100EE0007FE7FF2040428046A8444046002838D093
:100EF000511B002D00D1AEE0FF2A00D1DFE080239E
:100F00006046DB04184384461B2900DCD9E001203D
:100F100015008019B1E7FE206A1C104271D1002D26
:100F200000D0A6E06346002B00D1D9E00022002EBD
:100F300000D188E7981B430100D4E1E063460C0030
:100F4000F01A6FE7002E00D1B7E00200013A012845
:100F500000D19CE0FF2826D0904688E7FF2200279A
:100F600071E7FE206A1C104264D0FF2AF6D01500FB
:100F700066447008430700D056E7C308FF2D12D01F
:100F80005B025F0AEAB25EE76246002A00D196E0A1
:100F9000002E08D08022D203134204D048461042CB
:100FA00001D10C004B46002BD8D08027FF031F43F4
:100FB0007F02FF227F0A46E720233A00451B3800C4
:100FC0000135EA405D1BA840431E984100251043AF
:100FD00028E720231B1A32009E40C2403000431EE7
:100FE000984110430CE7FF2ADBD080236046DB04E6
:100FF000184384461B2F56DD01200C001500301AC3
:1010000000E763469F1B7B013DD4002F00D0FEE626
:1010100000240022002716E70500AFE73200434610
:101020004146DA4020235B1A9E403000431E98411F
:10103000104321E7002DA7D16346002B59D0002291
:10104000002E00D1FFE630006044430192D52A4BC8
:10105000013518408EE76346002B47D04B1E01290F
:1010600015D0FF292BD019004EE70C004B463D0050
:1010700084E76246002A8BD1002E92D1802700247B
:10108000FF22FF03DFE663460C00F71ABFE63000DD
:1010900060440125430100D46CE70225F2E6634673
:1010A0000125981BAEE6202364466046FC40DF1B0A
:1010B000B840431E984120439FE705005EE74B463A
:1010C00071E7202365466046CD40591A8840431E8B
:1010D000984128431CE763460C000125F01A91E66D
:1010E000002E95D00C004F460022ACE64B460D007A
:1010F00044E74F460022A6E6FFFFFFFBFFFFFF7D10
:10110000002800D036E7002400279CE64102420078
:10111000C30F490A0020120E7E2A03DD9D2A02DD3C
:10112000094A98187047802000040143952A07DC7B
:101130009620821AD1404842002BF3D10800F1E7F3
:10114000963A9140F7E7C046FFFFFF7FF8B50028C9
:1011500013D0C317C6185E40C40F300000F086F8E5
:101160009E2305001B1A962B0FDC082801DD083D85
:10117000AE407602760AD8B202E0002400200026B3
:10118000C0053043E4072043F8BD992B0CDD052250
:101190003100121AD1400A00010030001B31884092
:1011A000411E884102431600052D12DC31000D4F0F
:1011B0003940720709D00F203040042805D004318F
:1011C0004A0102D59F2339405B1B89014E0AD8B2E0
:1011D000D6E76A1F96403100024F39407207F4D0BB
:1011E000E9E7C046FFFFFFFB70B5051E0ED000F01B
:1011F0003DF89E2304001B1A962B0CDC082801DD09
:10120000083CA5406D026D0AD8B201E0002000251F
:10121000C005284370BD992B09DD020029001B324F
:1012200091404A1E91410522121AD5400D43052CCA
:1012300012DC29000C4E31406A0709D00F202840EB
:10124000042805D004314A0102D59F2331401B1BDD
:1012500089014D0AD8B2DBE7621F95402900024E92
:1012600031406A07F4D0E9E7FFFFFFFB1C210123AF
:101270001B04984201D3000C10391B0A984201D379
:10128000000A08391B09984201D30009043902A257
:10129000105C40187047C0460403020201010101BE
:1012A000000000000000000080B500AF9023DB05C7
:1012B0001A689023DB05C02189000A431A602B4B72
:1012C0009A692A4B802189000A439A61284B5A69FE
:1012D000274B03210A435A61254B9A6A244B30213C
:1012E0000A439A62224B9A68214B802109060A43DD
:1012F0009A60C0461E4B9B68002BFBDB1C4BDA68D8
:101300001B4B802189010A43DA60194BDA68184BBC
:1013100003210A43DA60164B9A68154B01210A43F0
:101320009A60134B9A68124B04210A439A600F4B40
:101330005A690E4B01210A435A610E4B0E4A9A60BC
:101340000C4B0E4ADA600B4B02225A60094B1A68AA
:10135000084B0B490A431A60064B1A68054B0121DA
:101360000A431A60C046BD4680BDC0460010024018
:101370000024014008000240402401403C000020BD
:10138000A025000080B584B000AFF860B9607A6035
:101390003B60FA68BB68D31AB9693A688A1A5A433B
:1013A00010007A68BB68D31A1900FEF737FF0300F4
:1013B0001A003B68D3181800BD4604B080BD000079
:1013C00080B584B002AF786039607A68FA239B00F8
:1013D0009A4201D9002320E03B68002B0CD17868A9
:1013E0001049FA239A00642300930B000021FFF7B1
:1013F000C9FF02000C4BDA623B68012B0CD1786804
:101400000849FA239A00642300930B000021FFF798
:10141000B9FF0200054BDA627B681800BD4602B0D6
:1014200080BDC046307500000048014000440140C6
:1014300080B500AF0B4B0C4ADA620C4B1A006C21E2
:10144000012001F0BFF9022000F01EFA074B1A003C
:101450006C21032001F0B6F9022000F015FAC04615
:10146000BD4680BD004801401027000001800003F8
:1014700080B582B000AF0200FB1D1A70FB1D1B7807
:101480007F2B09D8FB1D1B781A001F231A40044B21
:10149000012191400A001A60C046BD4602B080BDDD
:1014A00000E100E090B583B000AF02003960FB1DA1
:1014B0001A70FB1D1B787F2B28D82F4AFB1D1B7829
:1014C0005BB29B08C0339B009B58FA1D1278110039
:1014D00003220A40D200FF2191400A00D2431A4061
:1014E00011003B689B01FF221A40FB1D1B7818006E
:1014F00003230340DB009A401F48FB1D1B785BB2AF
:101500009B080A43C0339B001A5031E01B4AFB1D65
:101510001B7819000F230B40083B9B0806339B00E8
:10152000D31804331B68FA1D1278110003220A40F5
:10153000D200FF2191400A00D2431A4011003B68BB
:101540009B01FF221A40FB1D1B7818000323034058
:10155000DB009A400948FB1D1B781C000F23234029
:10156000083B9B080A4306339B00C31804331A60E8
:10157000C046BD4603B090BD00E100E000ED00E0D4
:1015800080B500AF2F4B1A682E4B802149020A43C9
:101590001A60C0462B4B1A6880239B021340F9D077
:1015A000294B1A68284B01210A431A60264B1A68F6
:1015B000254B10210A431A60224B5B68234A1A40CC
:1015C000204B802149030A435A601E4B5A681D4B29
:1015D0001F490A405A601B4B5A681A4BF0218A4334
:1015E0005A60184B5B681B4A1A40164B802149020F
:1015F0000A435A60134B1A68124B802109030A43AD
:101600001A60104B1A680F4B802149040A431A6074
:10161000C0460C4B1A6880239B041340F9D0094B39
:101620005B68032293431A00064B02210A435A6067
:10163000044B5A69034BC021C9020A435A61C04690
:10164000BD4680BD0010024000200240FFFFC3FFE6
:10165000FFF8FFFFFF7FFEFF80B500AF0B4B0C4A8A
:101660001A600A4B1222FF325A60084B094A9A60EC
:10167000064B094A1A60C046044BDB68002BFBD1BD
:10168000024B064A1A60C046BD4680BD003000408D
:1016900055550000FF0F0000CCCC0000AAAA0000A6
:1016A00080B500AF024B034A1A60C046BD4680BDFC
:1016B00000300040AAAA000080B500AF154B1A68A0
:1016C000144B01218A431A60124B1A68114B0221F4
:1016D0000A431A600F4B1A680E4B04210A431A6022
:1016E0000C4B5B681B0E1A060A4B0B490A435A60E7
:1016F000084B9B681B0E1A06064B07490A439A6063
:10170000044B1A68034B01210A431A60C046BD46C8
:1017100080BDC04610E000E07FBB000080B500AF98
:10172000524B1B685A1C514B1A60514B1B68002BC3
:1017300004D04F4B1B685A1E4D4B1A604D4B1B6813
:10174000132B05D84B4B1B685A1C4A4B1A6008E0F8
:10175000494B1B689A7810210A439A70454B002226
:101760001A60454B1B689B7808221340DBB2002BA4
:1017700002D0424B424A1A603F4B1B681A68F02362
:101780005B0213406FD03C4B1B681A68F0235B026E
:101790001A40A0231B029A4208D19023DB059A69C4
:1017A0009023DB05802109040A439A61324B1B68B0
:1017B0001A68F0235B021A4080231B029A4207D169
:1017C0009023DB059A699023DB0580210A439A6107
:1017D000294B1B681A68F0235B021A40C023DB0107
:1017E0009A4208D19023DB059A699023DB0580217A
:1017F00009040A439A61204B1B681A68F0235B02B4
:101800001A408023DB019A4207D19023DB059A69B5
:101810009023DB0580210A439A61174B1B681A68E5
:10182000F0235B021A4080239B019A4208D1902347
:10183000DB059A699023DB05802109040A439A613C
:101840000D4B1B681A68D203120FD2B20F32111C53
:101850000F220A40D2B20F210A40520319680948E8
:1018600001400A431A60C046BD4680BD40000020CA
:10187000440000204800002000000020003000400C
:10188000AAAA0000FF1FFEFF80B582B000AF7860FB
:10189000064B7A681A60C046044B1B68002BFBD1CC
:1018A000C046C046BD4602B080BDC04644000020D0
:1018B00080B500AF214BDA69204B02210A43DA617F
:1018C0009023DB051A689023DB05802189010A43F8
:1018D0001A609023DB051A6A9023DB0580214904F6
:1018E0000A431A62164B00229A62154B9622920006
:1018F000DA62134BC8225A63114B1A68104B8021CD
:101900000A431A600E4B9A690D4B08210A439A61EB
:101910000B4B9A690A4B60210A439A61084B1A6A79
:10192000074B01210A431A62054B1A68044B012137
:101930000A431A60C046BD4680BDC0460010024042
:101940000004004080B582B000AF0200BB1D1A80C9
:101950003B1D0A1C1A80164B9A69154B8021C9023F
:101960000A439A61BB1D1B885A1E124B9A62114B87
:101970003A1D1288DA620F4B1A680E4B80210A4317
:101980001A600C4B1A680B4B01210A431A60094B71
:10199000DA68084B01210A43DA601620FFF768FD78
:1019A00002211620FFF77EFDC046BD4602B080BD75
:1019B000001002400048014080B582B000AF020034
:1019C000BB1D1A803B1D0A1C1A80134B9A69124BCF
:1019D000802189020A439A61BB1D1B885A1E0F4B46
:1019E0009A620E4B3A1D1288DA620C4B1A680B4B46
:1019F00080210A431A60094B1A68084B01210A43E7
:101A00001A601520FFF734FD02211520FFF74AFD6B
:101A1000C046BD4602B080BD0010024000440140F7
:101A200080B500AF9023DB051A689023DB051449CD
:101A30000A431A609023DB059A689023DB0511495D
:101A40000A439A60104B1A680F4B10490A431A60F8
:101A50000D4B9A680C4B0E490A439A600A4B9A68E0
:101A6000094BC02189010A439A60074B9A68064BCB
:101A7000C02109020A439A60C046BD4680BDC046E7
:101A8000054000000FC000000004004844050000AD
:101A9000CC0F000080B500AF9023DB051B68244A03
:101AA0001A409023DB058021C9040A431A60902361
:101AB000DB055A689023DB051E490A405A609023D3
:101AC000DB05DA689023DB0519490A40DA609023C8
:101AD000DB059A689023DB05C02109050A439A605B
:101AE0009023DB051B68144A1A409023DB058021F4
:101AF00049050A431A609023DB055A689023DB05E9
:101B00000E490A405A609023DB05DA689023DB0512
:101B100009490A40DA609023DB059A689023DB05C7
:101B2000C02189050A439A60C046BD4680BDC046B3
:101B3000FFFFFFF3FFDFFFFFFFFFFFCFFFBFFFFF51
:101B400080B582B000AF7860244B1B681B787F2281
:101B50009343DBB2002B1AD17B680122134016D0CD
:101B60001E4B1B681A78802149420A431A70902341
:101B7000DB059A699023DB0580210A439A61184BA3
:101B80001A6818490A40802109020A431A60134B57
:101B90001B681B787F229343DBB2002B19D07B6834
:101BA0000122134015D10D4B1B681A787F210A4082
:101BB0001A709023DB059A699023DB0580210A4384
:101BC0009A61074B1A6807490A40802109020A43B3
:101BD0001A60C046BD4602B080BDC046000000206D
:101BE0006C000020FF1FFEFF80B500AF054B1A6898
:101BF000044B5A60044B1A68034B5A60C046BD46FA
:101C000080BDC0464C0000205C00002080B582B042
:101C100000AF0200FB1D1A70FB1D1B78012B02D1C7
:101C2000074B1B6807E0FB1D1B78022B02D1054BFD
:101C30001B6800E000231800BD4602B080BDC0460E
:101C40004C0000205C00002080B500AF5B4B1B788F
:101C500004221340DBB2002B12D1584B1A78042116
:101C60000A431A70564B9A69554B802189030A43DF
:101C70009A61534B9A69524B10210A439A616FE063
:101C80004F4B1B698022134024D14C4B1B780122FF
:101C90001340DBB2002B1DD19023DB051B69012211
:101CA000134009D09023DB059A699023DB0580213E
:101CB00049020A439A611BE09023DB059A6990234D
:101CC000DB0501210A439A613E4BDB685A1E3D4BFE
:101CD000DA600DE0394B1A7801210A431A7090231B
:101CE000DB059A699023DB05802149020A439A614A
:101CF000334B1B694022134024D0304B1B78022207
:101D00001340DBB2002B1DD19023DB051B6902229F
:101D1000134009D09023DB059A699023DB058021CD
:101D200089020A439A611BE09023DB059A6990239C
:101D3000DB0502210A439A61234BDB685A1E224BC2
:101D4000DA600DE01D4B1A7802210A431A709023C5
:101D5000DB059A699023DB05802189020A439A6199
:101D6000164B1B7801221340DBB2002B22D0134B01
:101D70001B7802221340DBB2002B1BD00F4B1A78CA
:101D800018218A43111C08220A431A700D4B0022A5
:101D90001A600D4B00221A600A4B1A68094B5A60F0
:101DA000094B1A68084B5A60084BDA68074B012147
:101DB0008A43DA60C046BD4680BDC0466C00002044
:101DC000000400484C0000205C0000200048014056
:101DD00080B500AF544B1B7804221340DBB2002BBC
:101DE00012D1514B1A7804210A431A704F4B9A6949
:101DF0004E4B20210A439A614C4B9A694B4B8021F0
:101E000049030A439A616FE0484B1B6980221340E3
:101E100024D0454B1B7801221340DBB2002B1DD18F
:101E20009023DB051B690122134009D09023DB05B9
:101E30009A699023DB05802149020A439A611BE0DD
:101E40009023DB059A699023DB0501210A439A61FF
:101E5000374B9B685A1C364B9A600DE0324B1A7810
:101E600001210A431A709023DB059A699023DB0550
:101E7000802149020A439A612C4B1B69402213407E
:101E800024D1294B1B7802221340DBB2002B1DD139
:101E90009023DB051B690222134009D09023DB0548
:101EA0009A699023DB05802189020A439A611BE02D
:101EB0009023DB059A699023DB0502210A439A618E
:101EC0001C4B9B685A1C1B4B9A600DE0164B1A78F2
:101ED00002210A431A709023DB059A699023DB05DF
:101EE000802189020A439A610F4B1B78012213401B
:101EF000DBB2002B14D00C4B1B7802221340DBB258
:101F0000002B0DD0084B1A7818218A43111C082287
:101F10000A431A70084BDA68074B01218A43DA60DA
:101F2000C046BD4680BDC0466C000020000400488D
:101F30004C0000205C0000200048014080B500AF4C
:101F4000334B1B7820221340DBB2002B19D0314BCE
:101F50005A68304B1B689A4207DD2F4B9A692E4B0B
:101F6000802189030A439A6105E02B4B9A692A4B29
:101F700020210A439A61264B1A7820218A431A703D
:101F800042E0244B5A68234B1B689A4213D1234BDF
:101F9000DA68224B01218A43DA601E4B5A681D4BD6
:101FA0001A609023DB059A699023DB0580214902A2
:101FB0000A439A6128E09023DB051B690122134044
:101FC00009D09023DB059A699023DB058021490223
:101FD0000A439A6118E09023DB059A699023DB0598
:101FE00001210A439A610B4B5A680A4B1B689A42BB
:101FF00005DA084B1B685A1E064B1A6004E0054BB5
:102000001B685A1C034B1A60C046BD4680BDC046C3
:102010006C0000204C0000200004004800480140F3
:1020200080B500AF334B1B7840221340DBB2002B4E
:1020300019D0314B5A68304B1B689A4206DD2F4B42
:102040009A692E4B10210A439A6106E02B4B9A693C
:102050002A4B802149030A439A61264B1A78402172
:102060008A431A7042E0244B5A68234B1B689A42F9
:1020700013D1234BDA68224B01218A43DA601E4BCD
:102080005A681D4B1A609023DB059A699023DB0583
:10209000802189020A439A6128E09023DB051B69AD
:1020A0000222134009D09023DB059A699023DB05B7
:1020B000802189020A439A6118E09023DB059A691E
:1020C0009023DB0502210A439A610B4B5A680A4BA5
:1020D0001B689A4205DA084B1B685A1E064B1A60A9
:1020E00004E0054B1B685A1C034B1A60C046BD46F2
:1020F00080BDC0466C0000205C0000200004004849
:102100000044014080B500AF0F4B1A690E4B01210E
:102110008A431A610D4B1B7818221340DBB2002B47
:1021200002D1FFF791FD0BE0084B1B7818221340FA
:10213000DBB2082B02D1FFF701FF01E0FFF748FEF9
:10214000C046BD4680BDC046004801406C0000202E
:1021500080B500AF054B1A69044B01218A431A610F
:10216000FFF75EFFC046BD4680BDC046004401404B
:1021700080B582B000AF786039603B68012B01D92F
:10218000002328E03B68002B10D1154B7A685A6079
:10219000144B1A7820210A431A70134B00225A62FA
:1021A000114BDA68104B01210A43DA603B68012BBE
:1021B00010D10E4B7A685A600A4B1A7840210A43B4
:1021C0001A700B4B00225A62094BDA68084B012146
:1021D0000A43DA6001231800BD4602B080BDC04644
:1021E0004C0000206C000020004801405C000020F2
:1021F0000044014080B582B000AF786039603B6830
:10220000012B01D9002328E03B68002B10D17A680C
:10221000144B5A60144B1A7820210A431A70134B3E
:1022200000225A62114BDA68104B01210A43DA602E
:102230003B68012B10D17A680D4B5A600A4B1A7813
:1022400040210A431A700B4B00225A62094BDA688C
:10225000084B01210A43DA6001231800BD4602B091
:1022600080BDC0464C0000206C00002000480140AA
:102270005C0000200044014080B584B000AF78606D
:102280000023FB607B68002B0DD1124BDB685B42A7
:102290005B05FB600F4B9B685B011A00FB681343F7
:1022A000FB60FB6811E07B68012B0DD10A4B9B683A
:1022B0005B05FB60084BDB685B425B011A00FB6857
:1022C0001343FB60FB6800E000231800BD4604B028
:1022D00080BDC0464C0000205C00002080B500AFEF
:1022E0001C4B1A78802149420A431A70194B5A78BC
:1022F00001218A435A70174B1A7818218A43111CFE
:1023000008220A431A70134B9A7802218A439A7062
:10231000104B9A7804210A439A700E4B9A78402108
:102320008A439A700B4B9A7808218A439A700A4B19
:1023300000221A60094B00221A609023DB059A697B
:102340009023DB05802109040A439A61C046BD46FB
:1023500080BDC0466C0000204C0000205C000020C6
:1023600080B500AF174B00225A62164BDA68154B46
:1023700001218A43DA60144B1A7818218A431A70B3
:10238000114B1A7801218A431A700F4B1A780221D7
:102390008A431A700C4B1A7804218A431A700B4B2B
:1023A0000022DA600A4B0022DA600A4B00225A62ED
:1023B000084BDA68074B01210A43DA60C046BD4684
:1023C00080BDC046004401406C0000204C0000204D
:1023D0005C0000200048014080B500AF184B00228F
:1023E0005A62174BDA68164B01218A43DA60154BA3
:1023F00000229A60144B00229A60144B1A7818211C
:102400008A43111C10220A431A70104B1A780121BA
:102410008A431A700D4B1A7802218A431A700B4BAB
:102420001A7804218A431A70094B00225A62084B19
:10243000DA68074B01210A43DA60C046BD4680BD19
:10244000004401404C0000205C0000206C00002093
:102450000048014080B582B000AF0200FB1D1A7039
:10246000FB1D1B787F2B09D8FB1D1B781A001F232F
:102470001A40044B012191400A001A60C046BD4633
:1024800002B080BD00E100E090B583B000AF020073
:102490003960FB1D1A70FB1D1B787F2B28D82F4A33
:1024A000FB1D1B785BB29B08C0339B009B58FA1D39
:1024B0001278110003220A40D200FF2191400A0045
:1024C000D2431A4011003B689B01FF221A40FB1DBA
:1024D0001B78180003230340DB009A401F48FB1DB4
:1024E0001B785BB29B080A43C0339B001A5031E053
:1024F0001B4AFB1D1B7819000F230B40083B9B0850
:1025000006339B00D31804331B68FA1D12781100A0
:1025100003220A40D200FF2191400A00D2431A4010
:1025200011003B689B01FF221A40FB1D1B7818001D
:1025300003230340DB009A400948FB1D1B781C0065
:102540000F232340083B9B080A4306339B00C31814
:1025500004331A60C046BD4603B090BD00E100E000
:1025600000ED00E080B582B000AF7860264B9A693C
:10257000254B8021C9010A439A619023DB051A6823
:102580009023DB05802109030A431A609023DB05B1
:102590009A689023DB05C02109030A439A609023BF
:1025A000DB055A689023DB05802189000A435A60C5
:1025B0009023DB055A6A9023DB0510210A435A62F7
:1025C000124B1A68114B12490A431A607B680F4A72
:1025D0001900100000F076F80C4B1A680B4B202104
:1025E0000A431A60094B1A68084B01210A431A6012
:1025F0001B20FFF72FFF01211B20FFF745FFC046DF
:10260000BD4602B080BDC046001002400038014007
:102610000C80000080B582B000AF7860264BDA698C
:10262000254B802189020A43DA619023DB051A6871
:102630009023DB05A0210A431A609023DB059A68EA
:102640009023DB05F0210A439A609023DB055A684A
:102650009023DB0504210A435A609023DB05DA68E6
:102660009023DB0550210A43DA609023DB051A6AC8
:102670009023DB05882149010A431A620F4B1A682F
:102680000E4B0F490A431A607B680C4A1900100070
:1026900000F018F8094B1A68084B01210A431A6028
:1026A0001C20FFF7D7FE01211C20FFF7EDFEC046DE
:1026B000BD4602B080BDC04600100240004400404C
:1026C0003C80000080B584B000AF78603960396824
:1026D0001348FDF719FD03001A007B68DA607B6878
:1026E000DA680E217B181A807B187A181288120378
:1026F0001A807B187A181288520B1A807B68DB6864
:102700000F2293431A007B68DA607B68DA687B18D3
:102710001B881A437B68DA60C046BD4604B080BDA2
:1027200000D8B80580B582B000AF02003960FB1D4B
:102730001A70C0460C4B5B7E002BFBD13B681A78AD
:102740000A4B92B21A85084BFA1D1278DA76064BBC
:1027500001225A76054B1A68044B80210A431A60FD
:10276000C046BD4602B080BD700000200038014068
:1027700080B582B000AF02003960FB1D1A70C04600
:102780000E4B40229B5C002BFAD13B681A780C4B15
:1027900092B21A85094BFA1D422112785A54074BFE
:1027A000402201219954064B1A68054B80210A43A7
:1027B0001A60C046BD4602B080BDC04690000020F1
:1027C0000044004080B582B000AF3A60FB1D021C9F
:1027D0001A70BB1D0A1C1A70194B55221A70184B1F
:1027E000FA1D12785A70164B80229A70144B9A7800
:1027F000BB1D1B781343DAB2114B9A703B681B0E5A
:10280000DAB20F4BDA703B681B0CDAB20C4B1A7160
:102810003B681B0ADAB20A4B5A713B68DAB2084BC2
:102820009A71074B0821180000F06CFA044B19004C
:102830000820FFF777FFC046BD4602B080BDC04606
:102840007000002080B582B000AF0200FB1D1A703E
:10285000BB1D0A1C1A700C4B55221A700A4BFA1D2C
:1028600012785A70084BBA1D12789A70064B0421E0
:10287000180000F047FA044B19000420FFF752FF3C
:10288000C046BD4602B080BD7000002080B500AFDC
:10289000134B1A006C210020FFF794FF0220FEF773
:1028A000F3FF104B1A0010210020FFF78BFF0220CE
:1028B000FEF7EAFF0A4B1A006C210120FFF782FFA6
:1028C0000220FEF7E1FF064B1A006C210320FFF700
:1028D00079FF0220FEF7D8FFC046BD4680BDC04646
:1028E0000180000808020100B0B500AF754B43221B
:1028F0009B5C002B00D1E2E0724B432200219954F3
:10290000704B20229B5C022B00D0D8E06D4B212223
:102910009B5C9B00DBB20333DBB26B4A11001800F7
:1029200000F044FA03001800664B21229B5C9B00D8
:102930000333644A2021D3185B181B78984200D0D7
:10294000B1E0604B22229B5C0C2B00D9B7E09A00CF
:102950005E4BD3181B689F465D4B01221A60012114
:10296000012000F0F9F8AAE05A4B180000F072F9C3
:1029700003001800FFF7E4F800F0B0F80200544B31
:102980001A600121022000F0E7F898E00120FFF72B
:102990003DF902004E4B1A600220FFF737F90200A2
:1029A0004B4B5A6000F09AF80200494B9A600321A1
:1029B000032000F0D1F882E0464B180000F04AF9FD
:1029C0000400454B180000F045F9030019002000F1
:1029D000FFF710FC02003E4B1A600121052000F0B9
:1029E000BBF86CE03B4B180000F034F90300180012
:1029F00000F078FD0200364B1A600121062000F03D
:102A0000ABF85CE0334B180000F024F90400324BC3
:102A1000180000F01FF9030019002000FEF7D0FC99
:102A200002002B4B1A600121072000F095F846E0C8
:102A30000020FFF721FC0200254B1A600120FFF760
:102A40001BFC0200224B5A600221082000F084F88F
:102A500035E01F4B01221A600121092000F07CF8AB
:102A6000FFF7C2F82BE01A4B01221A6001210A205D
:102A700000F072F823E0174B180000F0EBF80300A9
:102A8000180000F0F9FC0200114B1A6001210B2024
:102A900000F062F813E00E4B01221A6001210C20B5
:102AA00000F05AF8FEE70A4B00221A60054B22227A
:102AB0009B5C0021180000F04FF800E0C046C046C3
:102AC000BD46B0BD90000020B0000020D836000800
:102AD000D4000020B3000020B700002080B582B0F1
:102AE00000AF00237B601A4B1B681B781B06DB0FB3
:102AF000DBB27B60164B1B685B78DB07DB0FDBB25E
:102B00005B001A007B6813437B609023DB051A6926
:102B100080239B01134003D07B68082213437B6012
:102B20009023DB051A698023DB01134003D07B6807
:102B3000102213437B60074B1B785B011A007B68F4
:102B400013437B607B681800BD4602B080BDC04661
:102B5000000000201C00002080B582B000AF020001
:102B6000FB1D1A70BB1D0A1C1A70384B02221A700A
:102B7000364BBA1D12785A70344BFA1D12789A707F
:102B8000334B1B680321180000F090F8BB1D1B7825
:102B9000032B3BD055DC022B23D052DC002B02D080
:102BA000012B0FD04DE0294B1900032000F0FEF857
:102BB00003001A00254BDA70244B19000420FFF79C
:102BC000D7FD3EE0214B1900072000F0EFF803008D
:102BD0001A001E4BDA711D4B19000820FFF7C8FDC3
:102BE0002FE01B4B5B680721180000F05FF8174BC4
:102BF00019000B2000F0DAF803001A00134BDA7208
:102C0000124B19000C20FFF7B3FD1AE0104B5B6864
:102C10000721180000F04AF80D4B9B680B211800A3
:102C200000F044F8094B19000F2000F0BFF8030032
:102C30001A00064BDA73054B19001020FFF798FDB8
:102C4000C046C046BD4602B080BDC04690000020D0
:102C5000D400002080B584B000AF78600023FB6012
:102C60007B681B781B06FB607B6801337B607B689D
:102C70001B781B041A00FB681343FB607B6801335D
:102C80007B607B681B781B021A00FB681343FB60A8
:102C90007B6801337B607B681B781A00FB681343F9
:102CA000FB60FB681800BD4604B080BD80B582B0F3
:102CB00000AF78600A00FB1C1A707B681A0EFB1CC0
:102CC0001B78D1B20E4AD1547B681A0CFB1C1B78BE
:102CD0000133D1B20A4AD1547B681A0AFB1C1B7813
:102CE0000233D1B2064AD154FB1C1B7803337A68F5
:102CF000D1B2034AD154C046BD4602B080BDC046E1
:102D00009000002080B586B000AF78600A00FB1C00
:102D10001A70FB1C1B78013B7A68D318BB60BB6838
:102D200000221A7000237B6135E07B697A68D21833
:102D30000F23FB1812781A7000233B6125E0BB6853
:102D40001B78DB09DBB219000F23FB181B7801226B
:102D5000134099420AD0BB681B785B005BB2072224
:102D600053405BB2DAB2BB681A7005E0BB681B78EF
:102D7000DB18DAB2BB681A700F22BB18BA181278C7
:102D800052081A703B6901333B613B69072BD6DD62
:102D90007B6901337B61FB1C1B78013B7A699A429A
:102DA000C3DBC046C046BD4606B080BD80B584B01A
:102DB00000AF02003960FB1D1A700F23FB180022C0
:102DC0001A700023BB600CE0BB683A68D3181A780D
:102DD0000F217B18791809788A1A1A70BB68013399
:102DE000BB60FB1D1B78BA689A42EDDB0F203B18D5
:102DF0003A1812787F210A401A703B181B78202B52
:102E000004D83B183A18127821321A700F23FB1895
:102E10001B781800BD4604B080BD000080B500AF2F
:102E2000274BDB698022134020D0264BDA7E254BCE
:102E30005B7E9A420ED9234B5B7E1A00214B9A5C33
:102E40001F4B92B21A851F4B5B7E0133DAB21D4BCA
:102E50005A760BE01A4B1A68194B80218A431A6084
:102E6000184B00225A76174B0022DA76144BDB6996
:102E70002022134016D0124B9B8C9AB2114B9B7E92
:102E80001900D2B20F4B5B189A720E4B9B7E013326
:102E9000DAB20C4B9A760B4B9B7E0E2B02D9094B68
:102EA00000229A76064BDB690822134005D0044BBA
:102EB0001A6A034B08210A431A62C046BD4680BD08
:102EC000003801407000002080B500AF384BDB694E
:102ED0008022134027D0374B42229A5C354B402149
:102EE0005B5C9A4211D9334B40229B5C1A00314BF8
:102EF0009A5C2F4B92B21A852E4B40229B5C013379
:102F0000D9B22C4B402299540DE0294B1A68284B1A
:102F100080218A431A60274B402200219954254B77
:102F2000422200219954224BDB69202213401ED0FB
:102F30001F4B9B8C99B21F4B41229B5C1800C9B25E
:102F40001C4B20221B189B180A1C1A70194B41227B
:102F50009B5C0133D9B2174B41229954154B412246
:102F60009B5C1F2B03D9134B412200219954104B1A
:102F7000DB69102213400DD00D4B1A6A0C4B102147
:102F80000A431A620B4B432201219954094B4122F7
:102F900000219954064BDB690822134005D0044BED
:102FA0001A6A034B08210A431A62C046BD4680BD17
:102FB0000044004090000020F0B585B004AFFEF75B
:102FC000DFFAFEF779FBFEF72BFD5E4B19000320BD
:102FD000FEF7B8FC5B4B19000320FEF7EDFCE12384
:102FE0005B021800FFF7BEFAFEF75EF9564B9A69CE
:102FF000554B02210A439A61FA231B011800FEF780
:1030000043FCFEF747FD96235B001800FEF73CFCEF
:10301000FFF73CFCFFF762F94C4B00211800FFF76B
:10302000A7F84A4B01211800FFF7A2F8FA231B0169
:103030001800FEF729FCFFF7CFF9454B1800FEF703
:1030400023FC444B00211800FFF792F8414B01216B
:103050001800FFF78DF8FA231B011800FEF714FC87
:10306000FFF77EF9FA231B011800FEF70DFCFEF7AF
:10307000DFF9FEF71DFC384B00229A766A2100200A
:10308000FFF7E0FB0420FEF7FFFB334BDB7C18006F
:1030900000F0F0F8FEF7E0FAE1231B021800FFF75A
:1030A000B9FAFEF7FDFA2D4B1B689B7802221340FC
:1030B000DBB2002B01D1FFF717FC284B1B689B7874
:1030C00004221340DBB2002B07D0244B1B689A78F4
:1030D00004218A439A70FEF7ABF9204B1B689B785A
:1030E00010221340DBB2002B29D01C4B1B689A78AE
:1030F00010218A439A701A4B5B881800FEF774F807
:10310000061C184B1B681800FEF720F88446164B67
:103110001868164B1D68164B1A68164B1968164B23
:103120001B68164C03930291154B019300922B1CC4
:10313000021C6146301C00F00BF90300636300F0D1
:1031400021F8AEE710270000000400482823000003
:103150007017000078ECFFFF7000002000000020D6
:103160003C00002010000020040000200800002087
:103170000C00002014000020180000200004004073
:103180000AD7A33C80B500AF374B1B689B78402221
:103190001340DBB2002B31D1344B5A68334B1B68E0
:1031A0009A4218D0324B5A68314B1B689A4212D05F
:1031B0009023DB059A699023DB05802189010A436E
:1031C0009A619023DB059A699023DB058021C9056C
:1031D0000A439A6144E09023DB059A699023DB055A
:1031E000802189050A439A619023DB059A6990231F
:1031F000DB058021C9010A439A6131E01B4B5A6803
:103200001A4B1B689A4209D09023DB059A699023D8
:10321000DB05802189010A439A6108E09023DB05E0
:103220009A699023DB05802189050A439A61104B36
:103230005A680F4B1B689A4209D09023DB059A69A4
:103240009023DB058021C9010A439A6108E090239D
:10325000DB059A699023DB058021C9050A439A6141
:10326000C046BD4680BDC046000000204C00002086
:103270005C00002080B582B000AF0200FB1D1A7018
:10328000FB1D1B78032B3ED03EDC022B29D03BDC00
:10329000002B02D0012B12D036E09023DB059A6977
:1032A0009023DB0580210A439A61194B1B681A6839
:1032B00018490A40C02109020A431A6024E09023F9
:1032C000DB059A699023DB0580210A439A61104B44
:1032D0001B681A680F490A40802109020A431A60D4
:1032E00012E09023DB059A699023DB0580210A43D5
:1032F0009A61074B1B681A6806490A408021C90178
:103300000A431A6000E0C046C046BD4602B080BD18
:1033100000000020FF1FFEFF80B584B000AFF86002
:10332000B9607A60B968F868FDF776F8031E01D0D5
:10333000BB6808E0F9687868FDF76EF8031E01D0F5
:103340007B6800E0FB68181CBD4604B080BD00002F
:10335000B0B586B000AFF860B9607A603B60434BAF
:103360001B681800FDF7F2FE031C191CB868FDF776
:103370001FFD031CF968181CFDF71AFD031C7B6177
:103380003A4B1B68002B05DD384B1B680F3B1A00BE
:10339000364B1A60354B1B68002B05DA334B1B6824
:1033A0000F331A00314B1A60F96A7869FDF7DAFBBE
:1033B000031C3968181CFDF7D5FB031C1A1C2C4B89
:1033C0001B68191C101CFDF767F8031C1D1C386BCB
:1033D000FDF7BCFE041C786BFDF7B8FE031C1A1C3D
:1033E000211C281CFFF798FF021C214B1A60214B5F
:1033F0001B68191C7869FDF7DBFC031CF96A181CB3
:10340000FDF7E8F9031C3B611A4B7A691A60796889
:103410007869FDF7A7FB031C1A1C154B1B68191CC8
:10342000101CFDF739F8031C1C1CB96A3869FDF73C
:1034300099FB031C191C201CFDF72EF8031C1D1CF6
:10344000386BFDF783FE041C786BFDF77FFE031CD1
:103450001A1C211C281CFFF75FFF031C181CFDF71A
:1034600003F803001800BD4606B0B0BDE000002020
:10347000E4000020E800002090B587B002AF78603B
:103480007B68642B01D9002321E07B68DAB2124B00
:103490001A700E243B1900221A807868E1235A0022
:1034A000FA231B010093130064220021FDF76AFF39
:1034B00002003B191A803B191A88084B1B68D21A64
:1034C000074B1A603B191A88044B1A607B68180076
:1034D000BD4605B090BDC0461C0000201000002075
:1034E000E000002080B582B000AF78607B68002BE0
:1034F00007D10C4B1B689A7840218A439A700123AC
:103500000BE07B68012B07D1064B1B689A784021A2
:103510000A439A70012300E000231800BD4602B060
:1035200080BDC0460000002080B500AFC046BD464B
:1035300080BD00001348854613480168090E134AF0
:10354000914205D1124813490160134813490160A3
:1035500013481449144A002302E0D458C4500433D9
:10356000C4188C42F9D3114A114C002301E01360B6
:103570000432A242FBD3FFF7D7FF00F01DF8FFF79C
:103580001BFDFEE700180020040000001F000000E3
:10359000181002400100000000000140000000007F
:1035A0000000002020000020143700082000002028
:1035B000EC000020FEE7000070B500260C4D0D4C1D
:1035C000641BA410A64209D1002600F019F80A4D88
:1035D0000A4C641BA410A64205D170BDB300EB5881
:1035E00098470136EEE7B300EB5898470136F2E70B
:1035F0000C3700080C3700080C370008103700089B
:10360000F8B5C046F8BC08BC9E467047F8B5C04641
:08361000F8BC08BC9E4670479F
:10361800A8090008340900089008000848080008AC
:103628009008000870090008900800084808000879
:10363800340900083409000870090008480800081F
:103648004E0800084E0800084E0800087E090008C9
:1036580034090008340900089008000844080008E4
:10366800900800087009000890080008440800083D
:1036780034090008340900087009000844080008E3
:103688004E0800084E0800084E0800087A0900088D
:10369800080C0008D80B0008D80B0008D60B000847
:1036A800DC0B0008DC0B0008240D0008D60B000812
:1036B800DC0B0008240D0008DC0B0008D60B000802
:1036C800D00C0008D00C0008D00C0008600D0008D1
:1036D800BE2A000858290008682900088C29000813
:1036E800BC2A0008B8290008E4290008042A0008B0
:1036F800302A0008522A0008662A0008762A00089C
:04370800962A0008F5
:04370C00E9000008C8
:04371000C1000008EC
:103714006C0000200000803ECDCC0C4017B751381F
:10372400D0070000640000005802000028000000D8
:040000050800353585
:00000001FF
